{
	"Register.sol": {
		"Register": {
			"abi": [
				{
					"inputs": [],
					"name": "getInfo",
					"outputs": [
						{
							"internalType": "string",
							"name": "",
							"type": "string"
						}
					],
					"stateMutability": "view",
					"type": "function"
				},
				{
					"inputs": [
						{
							"internalType": "string",
							"name": "_info",
							"type": "string"
						}
					],
					"name": "setInfo",
					"outputs": [],
					"stateMutability": "nonpayable",
					"type": "function"
				}
			],
			"devdoc": {
				"kind": "dev",
				"methods": {},
				"version": 1
			},
			"evm": {
				"assembly": "    /* \"Register.sol\":57:276  contract Register {... */\n  mstore(0x40, 0x80)\n  callvalue\n  dup1\n  iszero\n  tag_1\n  jumpi\n  0x00\n  dup1\n  revert\ntag_1:\n  pop\n  dataSize(sub_0)\n  dup1\n  dataOffset(sub_0)\n  0x00\n  codecopy\n  0x00\n  return\nstop\n\nsub_0: assembly {\n        /* \"Register.sol\":57:276  contract Register {... */\n      mstore(0x40, 0x80)\n      callvalue\n      dup1\n      iszero\n      tag_1\n      jumpi\n      0x00\n      dup1\n      revert\n    tag_1:\n      pop\n      jumpi(tag_2, lt(calldatasize, 0x04))\n      shr(0xe0, calldataload(0x00))\n      dup1\n      0x5a9b0b89\n      eq\n      tag_3\n      jumpi\n      dup1\n      0x937f6e77\n      eq\n      tag_4\n      jumpi\n    tag_2:\n      0x00\n      dup1\n      revert\n        /* \"Register.sol\":111:194  function getInfo() public view returns (string memory) {... */\n    tag_3:\n      tag_5\n      tag_6\n      jump\t// in\n    tag_5:\n      mload(0x40)\n      tag_7\n      swap2\n      swap1\n      tag_8\n      jump\t// in\n    tag_7:\n      mload(0x40)\n      dup1\n      swap2\n      sub\n      swap1\n      return\n        /* \"Register.sol\":200:274  function setInfo(string memory _info) public {... */\n    tag_4:\n      tag_9\n      tag_10\n      calldatasize\n      0x04\n      tag_11\n      jump\t// in\n    tag_10:\n      tag_12\n      jump\t// in\n    tag_9:\n      stop\n        /* \"Register.sol\":111:194  function getInfo() public view returns (string memory) {... */\n    tag_6:\n        /* \"Register.sol\":151:164  string memory */\n      0x60\n        /* \"Register.sol\":183:187  info */\n      0x00\n        /* \"Register.sol\":176:187  return info */\n      dup1\n      sload\n      tag_14\n      swap1\n      tag_15\n      jump\t// in\n    tag_14:\n      dup1\n      0x1f\n      add\n      0x20\n      dup1\n      swap2\n      div\n      mul\n      0x20\n      add\n      mload(0x40)\n      swap1\n      dup2\n      add\n      0x40\n      mstore\n      dup1\n      swap3\n      swap2\n      swap1\n      dup2\n      dup2\n      mstore\n      0x20\n      add\n      dup3\n      dup1\n      sload\n      tag_16\n      swap1\n      tag_15\n      jump\t// in\n    tag_16:\n      dup1\n      iszero\n      tag_17\n      jumpi\n      dup1\n      0x1f\n      lt\n      tag_18\n      jumpi\n      0x0100\n      dup1\n      dup4\n      sload\n      div\n      mul\n      dup4\n      mstore\n      swap2\n      0x20\n      add\n      swap2\n      jump(tag_17)\n    tag_18:\n      dup3\n      add\n      swap2\n      swap1\n      0x00\n      mstore\n      keccak256(0x00, 0x20)\n      swap1\n    tag_19:\n      dup2\n      sload\n      dup2\n      mstore\n      swap1\n      0x01\n      add\n      swap1\n      0x20\n      add\n      dup1\n      dup4\n      gt\n      tag_19\n      jumpi\n      dup3\n      swap1\n      sub\n      0x1f\n      and\n      dup3\n      add\n      swap2\n    tag_17:\n      pop\n      pop\n      pop\n      pop\n      pop\n      swap1\n      pop\n        /* \"Register.sol\":111:194  function getInfo() public view returns (string memory) {... */\n      swap1\n      jump\t// out\n        /* \"Register.sol\":200:274  function setInfo(string memory _info) public {... */\n    tag_12:\n        /* \"Register.sol\":255:259  info */\n      0x00\n        /* \"Register.sol\":255:267  info = _info */\n      tag_21\n        /* \"Register.sol\":262:267  _info */\n      dup3\n        /* \"Register.sol\":255:259  info */\n      dup3\n        /* \"Register.sol\":255:267  info = _info */\n      tag_22\n      jump\t// in\n    tag_21:\n      pop\n        /* \"Register.sol\":200:274  function setInfo(string memory _info) public {... */\n      pop\n      jump\t// out\n        /* \"#utility.yul\":14:562   */\n    tag_8:\n        /* \"#utility.yul\":126:130   */\n      0x00\n        /* \"#utility.yul\":155:157   */\n      0x20\n        /* \"#utility.yul\":184:186   */\n      dup1\n        /* \"#utility.yul\":173:182   */\n      dup4\n        /* \"#utility.yul\":166:187   */\n      mstore\n        /* \"#utility.yul\":216:222   */\n      dup4\n        /* \"#utility.yul\":210:223   */\n      mload\n        /* \"#utility.yul\":259:265   */\n      dup1\n        /* \"#utility.yul\":254:256   */\n      dup3\n        /* \"#utility.yul\":243:252   */\n      dup6\n        /* \"#utility.yul\":239:257   */\n      add\n        /* \"#utility.yul\":232:266   */\n      mstore\n        /* \"#utility.yul\":284:285   */\n      0x00\n        /* \"#utility.yul\":294:434   */\n    tag_29:\n        /* \"#utility.yul\":308:314   */\n      dup2\n        /* \"#utility.yul\":305:306   */\n      dup2\n        /* \"#utility.yul\":302:315   */\n      lt\n        /* \"#utility.yul\":294:434   */\n      iszero\n      tag_31\n      jumpi\n        /* \"#utility.yul\":403:417   */\n      dup6\n      dup2\n      add\n        /* \"#utility.yul\":399:422   */\n      dup4\n      add\n        /* \"#utility.yul\":393:423   */\n      mload\n        /* \"#utility.yul\":369:386   */\n      dup6\n      dup3\n      add\n        /* \"#utility.yul\":388:390   */\n      0x40\n        /* \"#utility.yul\":365:391   */\n      add\n        /* \"#utility.yul\":358:424   */\n      mstore\n        /* \"#utility.yul\":323:333   */\n      dup3\n      add\n        /* \"#utility.yul\":294:434   */\n      jump(tag_29)\n    tag_31:\n        /* \"#utility.yul\":298:301   */\n      pop\n        /* \"#utility.yul\":483:484   */\n      0x00\n        /* \"#utility.yul\":478:480   */\n      0x40\n        /* \"#utility.yul\":469:475   */\n      dup3\n        /* \"#utility.yul\":458:467   */\n      dup7\n        /* \"#utility.yul\":454:476   */\n      add\n        /* \"#utility.yul\":450:481   */\n      add\n        /* \"#utility.yul\":443:485   */\n      mstore\n        /* \"#utility.yul\":553:555   */\n      0x40\n        /* \"#utility.yul\":546:548   */\n      0x1f\n        /* \"#utility.yul\":542:549   */\n      not\n        /* \"#utility.yul\":537:539   */\n      0x1f\n        /* \"#utility.yul\":529:535   */\n      dup4\n        /* \"#utility.yul\":525:540   */\n      add\n        /* \"#utility.yul\":521:550   */\n      and\n        /* \"#utility.yul\":510:519   */\n      dup6\n        /* \"#utility.yul\":506:551   */\n      add\n        /* \"#utility.yul\":502:556   */\n      add\n        /* \"#utility.yul\":494:556   */\n      swap3\n      pop\n      pop\n      pop\n        /* \"#utility.yul\":14:562   */\n      swap3\n      swap2\n      pop\n      pop\n      jump\t// out\n        /* \"#utility.yul\":567:694   */\n    tag_23:\n        /* \"#utility.yul\":628:638   */\n      0x4e487b71\n        /* \"#utility.yul\":623:626   */\n      0xe0\n        /* \"#utility.yul\":619:639   */\n      shl\n        /* \"#utility.yul\":616:617   */\n      0x00\n        /* \"#utility.yul\":609:640   */\n      mstore\n        /* \"#utility.yul\":659:663   */\n      0x41\n        /* \"#utility.yul\":656:657   */\n      0x04\n        /* \"#utility.yul\":649:664   */\n      mstore\n        /* \"#utility.yul\":683:687   */\n      0x24\n        /* \"#utility.yul\":680:681   */\n      0x00\n        /* \"#utility.yul\":673:688   */\n      revert\n        /* \"#utility.yul\":699:1621   */\n    tag_11:\n        /* \"#utility.yul\":768:774   */\n      0x00\n        /* \"#utility.yul\":821:823   */\n      0x20\n        /* \"#utility.yul\":809:818   */\n      dup3\n        /* \"#utility.yul\":800:807   */\n      dup5\n        /* \"#utility.yul\":796:819   */\n      sub\n        /* \"#utility.yul\":792:824   */\n      slt\n        /* \"#utility.yul\":789:841   */\n      iszero\n      tag_34\n      jumpi\n        /* \"#utility.yul\":837:838   */\n      0x00\n        /* \"#utility.yul\":834:835   */\n      dup1\n        /* \"#utility.yul\":827:839   */\n      revert\n        /* \"#utility.yul\":789:841   */\n    tag_34:\n        /* \"#utility.yul\":877:886   */\n      dup2\n        /* \"#utility.yul\":864:887   */\n      calldataload\n        /* \"#utility.yul\":906:924   */\n      0xffffffffffffffff\n        /* \"#utility.yul\":947:949   */\n      dup1\n        /* \"#utility.yul\":939:945   */\n      dup3\n        /* \"#utility.yul\":936:950   */\n      gt\n        /* \"#utility.yul\":933:967   */\n      iszero\n      tag_35\n      jumpi\n        /* \"#utility.yul\":963:964   */\n      0x00\n        /* \"#utility.yul\":960:961   */\n      dup1\n        /* \"#utility.yul\":953:965   */\n      revert\n        /* \"#utility.yul\":933:967   */\n    tag_35:\n        /* \"#utility.yul\":1001:1007   */\n      dup2\n        /* \"#utility.yul\":990:999   */\n      dup5\n        /* \"#utility.yul\":986:1008   */\n      add\n        /* \"#utility.yul\":976:1008   */\n      swap2\n      pop\n        /* \"#utility.yul\":1046:1053   */\n      dup5\n        /* \"#utility.yul\":1039:1043   */\n      0x1f\n        /* \"#utility.yul\":1035:1037   */\n      dup4\n        /* \"#utility.yul\":1031:1044   */\n      add\n        /* \"#utility.yul\":1027:1054   */\n      slt\n        /* \"#utility.yul\":1017:1072   */\n      tag_36\n      jumpi\n        /* \"#utility.yul\":1068:1069   */\n      0x00\n        /* \"#utility.yul\":1065:1066   */\n      dup1\n        /* \"#utility.yul\":1058:1070   */\n      revert\n        /* \"#utility.yul\":1017:1072   */\n    tag_36:\n        /* \"#utility.yul\":1104:1106   */\n      dup2\n        /* \"#utility.yul\":1091:1107   */\n      calldataload\n        /* \"#utility.yul\":1126:1128   */\n      dup2\n        /* \"#utility.yul\":1122:1124   */\n      dup2\n        /* \"#utility.yul\":1119:1129   */\n      gt\n        /* \"#utility.yul\":1116:1152   */\n      iszero\n      tag_38\n      jumpi\n        /* \"#utility.yul\":1132:1150   */\n      tag_38\n      tag_23\n      jump\t// in\n    tag_38:\n        /* \"#utility.yul\":1207:1209   */\n      0x40\n        /* \"#utility.yul\":1201:1210   */\n      mload\n        /* \"#utility.yul\":1175:1177   */\n      0x1f\n        /* \"#utility.yul\":1261:1274   */\n      dup3\n      add\n      not(0x1f)\n        /* \"#utility.yul\":1257:1279   */\n      swap1\n      dup2\n      and\n        /* \"#utility.yul\":1281:1283   */\n      0x3f\n        /* \"#utility.yul\":1253:1284   */\n      add\n        /* \"#utility.yul\":1249:1289   */\n      and\n        /* \"#utility.yul\":1237:1290   */\n      dup2\n      add\n      swap1\n        /* \"#utility.yul\":1305:1323   */\n      dup4\n      dup3\n      gt\n        /* \"#utility.yul\":1325:1347   */\n      dup2\n      dup4\n      lt\n        /* \"#utility.yul\":1302:1348   */\n      or\n        /* \"#utility.yul\":1299:1371   */\n      iszero\n      tag_40\n      jumpi\n        /* \"#utility.yul\":1351:1369   */\n      tag_40\n      tag_23\n      jump\t// in\n    tag_40:\n        /* \"#utility.yul\":1391:1401   */\n      dup2\n        /* \"#utility.yul\":1387:1389   */\n      0x40\n        /* \"#utility.yul\":1380:1402   */\n      mstore\n        /* \"#utility.yul\":1426:1428   */\n      dup3\n        /* \"#utility.yul\":1418:1424   */\n      dup2\n        /* \"#utility.yul\":1411:1429   */\n      mstore\n        /* \"#utility.yul\":1466:1473   */\n      dup8\n        /* \"#utility.yul\":1461:1463   */\n      0x20\n        /* \"#utility.yul\":1456:1458   */\n      dup5\n        /* \"#utility.yul\":1452:1454   */\n      dup8\n        /* \"#utility.yul\":1448:1459   */\n      add\n        /* \"#utility.yul\":1444:1464   */\n      add\n        /* \"#utility.yul\":1441:1474   */\n      gt\n        /* \"#utility.yul\":1438:1491   */\n      iszero\n      tag_41\n      jumpi\n        /* \"#utility.yul\":1487:1488   */\n      0x00\n        /* \"#utility.yul\":1484:1485   */\n      dup1\n        /* \"#utility.yul\":1477:1489   */\n      revert\n        /* \"#utility.yul\":1438:1491   */\n    tag_41:\n        /* \"#utility.yul\":1543:1545   */\n      dup3\n        /* \"#utility.yul\":1538:1540   */\n      0x20\n        /* \"#utility.yul\":1534:1536   */\n      dup7\n        /* \"#utility.yul\":1530:1541   */\n      add\n        /* \"#utility.yul\":1525:1527   */\n      0x20\n        /* \"#utility.yul\":1517:1523   */\n      dup4\n        /* \"#utility.yul\":1513:1528   */\n      add\n        /* \"#utility.yul\":1500:1546   */\n      calldatacopy\n        /* \"#utility.yul\":1588:1589   */\n      0x00\n        /* \"#utility.yul\":1566:1581   */\n      swap3\n      dup2\n      add\n        /* \"#utility.yul\":1583:1585   */\n      0x20\n        /* \"#utility.yul\":1562:1586   */\n      add\n        /* \"#utility.yul\":1555:1590   */\n      swap3\n      swap1\n      swap3\n      mstore\n      pop\n        /* \"#utility.yul\":1570:1576   */\n      swap6\n        /* \"#utility.yul\":699:1621   */\n      swap5\n      pop\n      pop\n      pop\n      pop\n      pop\n      jump\t// out\n        /* \"#utility.yul\":1626:2006   */\n    tag_15:\n        /* \"#utility.yul\":1705:1706   */\n      0x01\n        /* \"#utility.yul\":1701:1713   */\n      dup2\n      dup2\n      shr\n      swap1\n        /* \"#utility.yul\":1748:1760   */\n      dup3\n      and\n      dup1\n        /* \"#utility.yul\":1769:1830   */\n      tag_43\n      jumpi\n        /* \"#utility.yul\":1823:1827   */\n      0x7f\n        /* \"#utility.yul\":1815:1821   */\n      dup3\n        /* \"#utility.yul\":1811:1828   */\n      and\n        /* \"#utility.yul\":1801:1828   */\n      swap2\n      pop\n        /* \"#utility.yul\":1769:1830   */\n    tag_43:\n        /* \"#utility.yul\":1876:1878   */\n      0x20\n        /* \"#utility.yul\":1868:1874   */\n      dup3\n        /* \"#utility.yul\":1865:1879   */\n      lt\n        /* \"#utility.yul\":1845:1863   */\n      dup2\n        /* \"#utility.yul\":1842:1880   */\n      sub\n        /* \"#utility.yul\":1839:2000   */\n      tag_44\n      jumpi\n        /* \"#utility.yul\":1922:1932   */\n      0x4e487b71\n        /* \"#utility.yul\":1917:1920   */\n      0xe0\n        /* \"#utility.yul\":1913:1933   */\n      shl\n        /* \"#utility.yul\":1910:1911   */\n      0x00\n        /* \"#utility.yul\":1903:1934   */\n      mstore\n        /* \"#utility.yul\":1957:1961   */\n      0x22\n        /* \"#utility.yul\":1954:1955   */\n      0x04\n        /* \"#utility.yul\":1947:1962   */\n      mstore\n        /* \"#utility.yul\":1985:1989   */\n      0x24\n        /* \"#utility.yul\":1982:1983   */\n      0x00\n        /* \"#utility.yul\":1975:1990   */\n      revert\n        /* \"#utility.yul\":1839:2000   */\n    tag_44:\n      pop\n        /* \"#utility.yul\":1626:2006   */\n      swap2\n      swap1\n      pop\n      jump\t// out\n        /* \"#utility.yul\":2137:2682   */\n    tag_25:\n        /* \"#utility.yul\":2239:2241   */\n      0x1f\n        /* \"#utility.yul\":2234:2237   */\n      dup3\n        /* \"#utility.yul\":2231:2242   */\n      gt\n        /* \"#utility.yul\":2228:2676   */\n      iszero\n      tag_47\n      jumpi\n        /* \"#utility.yul\":2275:2276   */\n      0x00\n        /* \"#utility.yul\":2300:2305   */\n      dup2\n        /* \"#utility.yul\":2296:2298   */\n      dup2\n        /* \"#utility.yul\":2289:2306   */\n      mstore\n        /* \"#utility.yul\":2345:2349   */\n      0x20\n        /* \"#utility.yul\":2341:2343   */\n      dup2\n        /* \"#utility.yul\":2331:2350   */\n      keccak256\n        /* \"#utility.yul\":2415:2417   */\n      0x1f\n        /* \"#utility.yul\":2403:2413   */\n      dup6\n        /* \"#utility.yul\":2399:2418   */\n      add\n        /* \"#utility.yul\":2396:2397   */\n      0x05\n        /* \"#utility.yul\":2392:2419   */\n      shr\n        /* \"#utility.yul\":2386:2390   */\n      dup2\n        /* \"#utility.yul\":2382:2420   */\n      add\n        /* \"#utility.yul\":2451:2455   */\n      0x20\n        /* \"#utility.yul\":2439:2449   */\n      dup7\n        /* \"#utility.yul\":2436:2456   */\n      lt\n        /* \"#utility.yul\":2433:2480   */\n      iszero\n      tag_48\n      jumpi\n      pop\n        /* \"#utility.yul\":2474:2478   */\n      dup1\n        /* \"#utility.yul\":2433:2480   */\n    tag_48:\n        /* \"#utility.yul\":2529:2531   */\n      0x1f\n        /* \"#utility.yul\":2524:2527   */\n      dup6\n        /* \"#utility.yul\":2520:2532   */\n      add\n        /* \"#utility.yul\":2517:2518   */\n      0x05\n        /* \"#utility.yul\":2513:2533   */\n      shr\n        /* \"#utility.yul\":2507:2511   */\n      dup3\n        /* \"#utility.yul\":2503:2534   */\n      add\n        /* \"#utility.yul\":2493:2534   */\n      swap2\n      pop\n        /* \"#utility.yul\":2584:2666   */\n    tag_49:\n        /* \"#utility.yul\":2602:2604   */\n      dup2\n        /* \"#utility.yul\":2595:2600   */\n      dup2\n        /* \"#utility.yul\":2592:2605   */\n      lt\n        /* \"#utility.yul\":2584:2666   */\n      iszero\n      tag_51\n      jumpi\n        /* \"#utility.yul\":2647:2664   */\n      dup3\n      dup2\n      sstore\n        /* \"#utility.yul\":2628:2629   */\n      0x01\n        /* \"#utility.yul\":2617:2630   */\n      add\n        /* \"#utility.yul\":2584:2666   */\n      jump(tag_49)\n    tag_51:\n        /* \"#utility.yul\":2588:2591   */\n      pop\n      pop\n      pop\n        /* \"#utility.yul\":2228:2676   */\n    tag_47:\n        /* \"#utility.yul\":2137:2682   */\n      pop\n      pop\n      pop\n      jump\t// out\n        /* \"#utility.yul\":2858:4210   */\n    tag_22:\n        /* \"#utility.yul\":2984:2987   */\n      dup2\n        /* \"#utility.yul\":2978:2988   */\n      mload\n        /* \"#utility.yul\":3011:3029   */\n      0xffffffffffffffff\n        /* \"#utility.yul\":3003:3009   */\n      dup2\n        /* \"#utility.yul\":3000:3030   */\n      gt\n        /* \"#utility.yul\":2997:3053   */\n      iszero\n      tag_55\n      jumpi\n        /* \"#utility.yul\":3033:3051   */\n      tag_55\n      tag_23\n      jump\t// in\n    tag_55:\n        /* \"#utility.yul\":3062:3159   */\n      tag_56\n        /* \"#utility.yul\":3152:3158   */\n      dup2\n        /* \"#utility.yul\":3112:3150   */\n      tag_57\n        /* \"#utility.yul\":3144:3148   */\n      dup5\n        /* \"#utility.yul\":3138:3149   */\n      sload\n        /* \"#utility.yul\":3112:3150   */\n      tag_15\n      jump\t// in\n    tag_57:\n        /* \"#utility.yul\":3106:3110   */\n      dup5\n        /* \"#utility.yul\":3062:3159   */\n      tag_25\n      jump\t// in\n    tag_56:\n        /* \"#utility.yul\":3214:3218   */\n      0x20\n      dup1\n        /* \"#utility.yul\":3278:3280   */\n      0x1f\n        /* \"#utility.yul\":3267:3281   */\n      dup4\n      gt\n        /* \"#utility.yul\":3295:3296   */\n      0x01\n        /* \"#utility.yul\":3290:3953   */\n      dup2\n      eq\n      tag_59\n      jumpi\n        /* \"#utility.yul\":3997:3998   */\n      0x00\n        /* \"#utility.yul\":4014:4020   */\n      dup5\n        /* \"#utility.yul\":4011:4100   */\n      iszero\n      tag_60\n      jumpi\n      pop\n        /* \"#utility.yul\":4066:4085   */\n      dup6\n      dup4\n      add\n        /* \"#utility.yul\":4060:4086   */\n      mload\n        /* \"#utility.yul\":4011:4100   */\n    tag_60:\n      not(0x00)\n        /* \"#utility.yul\":2815:2816   */\n      0x03\n        /* \"#utility.yul\":2811:2822   */\n      dup7\n      swap1\n      shl\n        /* \"#utility.yul\":2807:2831   */\n      shr\n        /* \"#utility.yul\":2803:2832   */\n      not\n        /* \"#utility.yul\":2793:2833   */\n      and\n        /* \"#utility.yul\":2839:2840   */\n      0x01\n        /* \"#utility.yul\":2835:2846   */\n      dup6\n      swap1\n      shl\n        /* \"#utility.yul\":2790:2847   */\n      or\n        /* \"#utility.yul\":4113:4194   */\n      dup6\n      sstore\n        /* \"#utility.yul\":3260:4204   */\n      jump(tag_51)\n        /* \"#utility.yul\":3290:3953   */\n    tag_59:\n        /* \"#utility.yul\":2084:2085   */\n      0x00\n        /* \"#utility.yul\":2077:2091   */\n      dup6\n      dup2\n      mstore\n        /* \"#utility.yul\":2121:2125   */\n      0x20\n        /* \"#utility.yul\":2108:2126   */\n      dup2\n      keccak256\n      not(0x1f)\n        /* \"#utility.yul\":3326:3346   */\n      dup7\n      and\n      swap2\n        /* \"#utility.yul\":3444:3680   */\n    tag_63:\n        /* \"#utility.yul\":3458:3465   */\n      dup3\n        /* \"#utility.yul\":3455:3456   */\n      dup2\n        /* \"#utility.yul\":3452:3466   */\n      lt\n        /* \"#utility.yul\":3444:3680   */\n      iszero\n      tag_65\n      jumpi\n        /* \"#utility.yul\":3547:3566   */\n      dup9\n      dup7\n      add\n        /* \"#utility.yul\":3541:3567   */\n      mload\n        /* \"#utility.yul\":3526:3568   */\n      dup3\n      sstore\n        /* \"#utility.yul\":3639:3666   */\n      swap5\n      dup5\n      add\n      swap5\n        /* \"#utility.yul\":3607:3608   */\n      0x01\n        /* \"#utility.yul\":3595:3609   */\n      swap1\n      swap2\n      add\n      swap1\n        /* \"#utility.yul\":3474:3493   */\n      dup5\n      add\n        /* \"#utility.yul\":3444:3680   */\n      jump(tag_63)\n    tag_65:\n        /* \"#utility.yul\":3448:3451   */\n      pop\n        /* \"#utility.yul\":3708:3714   */\n      dup6\n        /* \"#utility.yul\":3699:3706   */\n      dup3\n        /* \"#utility.yul\":3696:3715   */\n      lt\n        /* \"#utility.yul\":3693:3894   */\n      iszero\n      tag_66\n      jumpi\n        /* \"#utility.yul\":3769:3788   */\n      dup8\n      dup6\n      add\n        /* \"#utility.yul\":3763:3789   */\n      mload\n      not(0x00)\n        /* \"#utility.yul\":3852:3853   */\n      0x03\n        /* \"#utility.yul\":3848:3862   */\n      dup9\n      swap1\n      shl\n        /* \"#utility.yul\":3864:3867   */\n      0xf8\n        /* \"#utility.yul\":3844:3868   */\n      and\n        /* \"#utility.yul\":3840:3877   */\n      shr\n        /* \"#utility.yul\":3836:3878   */\n      not\n        /* \"#utility.yul\":3821:3879   */\n      and\n        /* \"#utility.yul\":3806:3880   */\n      dup2\n      sstore\n        /* \"#utility.yul\":3693:3894   */\n    tag_66:\n      pop\n      pop\n      pop\n      pop\n      pop\n        /* \"#utility.yul\":3940:3941   */\n      0x01\n        /* \"#utility.yul\":3924:3938   */\n      swap1\n      dup2\n      shl\n        /* \"#utility.yul\":3920:3942   */\n      add\n        /* \"#utility.yul\":3907:3943   */\n      swap1\n      sstore\n      pop\n        /* \"#utility.yul\":2858:4210   */\n      jump\t// out\n\n    auxdata: 0xa26469706673582212206e305ce99864413c5dc858b6ff6b607a589f99948164b0c88a600cb2a120e72d64736f6c63430008130033\n}\n",
				"bytecode": {
					"linkReferences": {},
					"object": "608060405234801561001057600080fd5b506103a4806100206000396000f3fe608060405234801561001057600080fd5b50600436106100365760003560e01c80635a9b0b891461003b578063937f6e7714610059575b600080fd5b61004361006e565b6040516100509190610110565b60405180910390f35b61006c610067366004610174565b610100565b005b60606000805461007d90610225565b80601f01602080910402602001604051908101604052809291908181526020018280546100a990610225565b80156100f65780601f106100cb576101008083540402835291602001916100f6565b820191906000526020600020905b8154815290600101906020018083116100d957829003601f168201915b5050505050905090565b600061010c82826102ae565b5050565b600060208083528351808285015260005b8181101561013d57858101830151858201604001528201610121565b506000604082860101526040601f19601f8301168501019250505092915050565b634e487b7160e01b600052604160045260246000fd5b60006020828403121561018657600080fd5b813567ffffffffffffffff8082111561019e57600080fd5b818401915084601f8301126101b257600080fd5b8135818111156101c4576101c461015e565b604051601f8201601f19908116603f011681019083821181831017156101ec576101ec61015e565b8160405282815287602084870101111561020557600080fd5b826020860160208301376000928101602001929092525095945050505050565b600181811c9082168061023957607f821691505b60208210810361025957634e487b7160e01b600052602260045260246000fd5b50919050565b601f8211156102a957600081815260208120601f850160051c810160208610156102865750805b601f850160051c820191505b818110156102a557828155600101610292565b5050505b505050565b815167ffffffffffffffff8111156102c8576102c861015e565b6102dc816102d68454610225565b8461025f565b602080601f83116001811461031157600084156102f95750858301515b600019600386901b1c1916600185901b1785556102a5565b600085815260208120601f198616915b8281101561034057888601518255948401946001909101908401610321565b508582101561035e5787850151600019600388901b60f8161c191681555b5050505050600190811b0190555056fea26469706673582212206e305ce99864413c5dc858b6ff6b607a589f99948164b0c88a600cb2a120e72d64736f6c63430008130033",
					"opcodes": "PUSH1 0x80 PUSH1 0x40 MSTORE CALLVALUE DUP1 ISZERO PUSH2 0x10 JUMPI PUSH1 0x0 DUP1 REVERT JUMPDEST POP PUSH2 0x3A4 DUP1 PUSH2 0x20 PUSH1 0x0 CODECOPY PUSH1 0x0 RETURN INVALID PUSH1 0x80 PUSH1 0x40 MSTORE CALLVALUE DUP1 ISZERO PUSH2 0x10 JUMPI PUSH1 0x0 DUP1 REVERT JUMPDEST POP PUSH1 0x4 CALLDATASIZE LT PUSH2 0x36 JUMPI PUSH1 0x0 CALLDATALOAD PUSH1 0xE0 SHR DUP1 PUSH4 0x5A9B0B89 EQ PUSH2 0x3B JUMPI DUP1 PUSH4 0x937F6E77 EQ PUSH2 0x59 JUMPI JUMPDEST PUSH1 0x0 DUP1 REVERT JUMPDEST PUSH2 0x43 PUSH2 0x6E JUMP JUMPDEST PUSH1 0x40 MLOAD PUSH2 0x50 SWAP2 SWAP1 PUSH2 0x110 JUMP JUMPDEST PUSH1 0x40 MLOAD DUP1 SWAP2 SUB SWAP1 RETURN JUMPDEST PUSH2 0x6C PUSH2 0x67 CALLDATASIZE PUSH1 0x4 PUSH2 0x174 JUMP JUMPDEST PUSH2 0x100 JUMP JUMPDEST STOP JUMPDEST PUSH1 0x60 PUSH1 0x0 DUP1 SLOAD PUSH2 0x7D SWAP1 PUSH2 0x225 JUMP JUMPDEST DUP1 PUSH1 0x1F ADD PUSH1 0x20 DUP1 SWAP2 DIV MUL PUSH1 0x20 ADD PUSH1 0x40 MLOAD SWAP1 DUP2 ADD PUSH1 0x40 MSTORE DUP1 SWAP3 SWAP2 SWAP1 DUP2 DUP2 MSTORE PUSH1 0x20 ADD DUP3 DUP1 SLOAD PUSH2 0xA9 SWAP1 PUSH2 0x225 JUMP JUMPDEST DUP1 ISZERO PUSH2 0xF6 JUMPI DUP1 PUSH1 0x1F LT PUSH2 0xCB JUMPI PUSH2 0x100 DUP1 DUP4 SLOAD DIV MUL DUP4 MSTORE SWAP2 PUSH1 0x20 ADD SWAP2 PUSH2 0xF6 JUMP JUMPDEST DUP3 ADD SWAP2 SWAP1 PUSH1 0x0 MSTORE PUSH1 0x20 PUSH1 0x0 KECCAK256 SWAP1 JUMPDEST DUP2 SLOAD DUP2 MSTORE SWAP1 PUSH1 0x1 ADD SWAP1 PUSH1 0x20 ADD DUP1 DUP4 GT PUSH2 0xD9 JUMPI DUP3 SWAP1 SUB PUSH1 0x1F AND DUP3 ADD SWAP2 JUMPDEST POP POP POP POP POP SWAP1 POP SWAP1 JUMP JUMPDEST PUSH1 0x0 PUSH2 0x10C DUP3 DUP3 PUSH2 0x2AE JUMP JUMPDEST POP POP JUMP JUMPDEST PUSH1 0x0 PUSH1 0x20 DUP1 DUP4 MSTORE DUP4 MLOAD DUP1 DUP3 DUP6 ADD MSTORE PUSH1 0x0 JUMPDEST DUP2 DUP2 LT ISZERO PUSH2 0x13D JUMPI DUP6 DUP2 ADD DUP4 ADD MLOAD DUP6 DUP3 ADD PUSH1 0x40 ADD MSTORE DUP3 ADD PUSH2 0x121 JUMP JUMPDEST POP PUSH1 0x0 PUSH1 0x40 DUP3 DUP7 ADD ADD MSTORE PUSH1 0x40 PUSH1 0x1F NOT PUSH1 0x1F DUP4 ADD AND DUP6 ADD ADD SWAP3 POP POP POP SWAP3 SWAP2 POP POP JUMP JUMPDEST PUSH4 0x4E487B71 PUSH1 0xE0 SHL PUSH1 0x0 MSTORE PUSH1 0x41 PUSH1 0x4 MSTORE PUSH1 0x24 PUSH1 0x0 REVERT JUMPDEST PUSH1 0x0 PUSH1 0x20 DUP3 DUP5 SUB SLT ISZERO PUSH2 0x186 JUMPI PUSH1 0x0 DUP1 REVERT JUMPDEST DUP2 CALLDATALOAD PUSH8 0xFFFFFFFFFFFFFFFF DUP1 DUP3 GT ISZERO PUSH2 0x19E JUMPI PUSH1 0x0 DUP1 REVERT JUMPDEST DUP2 DUP5 ADD SWAP2 POP DUP5 PUSH1 0x1F DUP4 ADD SLT PUSH2 0x1B2 JUMPI PUSH1 0x0 DUP1 REVERT JUMPDEST DUP2 CALLDATALOAD DUP2 DUP2 GT ISZERO PUSH2 0x1C4 JUMPI PUSH2 0x1C4 PUSH2 0x15E JUMP JUMPDEST PUSH1 0x40 MLOAD PUSH1 0x1F DUP3 ADD PUSH1 0x1F NOT SWAP1 DUP2 AND PUSH1 0x3F ADD AND DUP2 ADD SWAP1 DUP4 DUP3 GT DUP2 DUP4 LT OR ISZERO PUSH2 0x1EC JUMPI PUSH2 0x1EC PUSH2 0x15E JUMP JUMPDEST DUP2 PUSH1 0x40 MSTORE DUP3 DUP2 MSTORE DUP8 PUSH1 0x20 DUP5 DUP8 ADD ADD GT ISZERO PUSH2 0x205 JUMPI PUSH1 0x0 DUP1 REVERT JUMPDEST DUP3 PUSH1 0x20 DUP7 ADD PUSH1 0x20 DUP4 ADD CALLDATACOPY PUSH1 0x0 SWAP3 DUP2 ADD PUSH1 0x20 ADD SWAP3 SWAP1 SWAP3 MSTORE POP SWAP6 SWAP5 POP POP POP POP POP JUMP JUMPDEST PUSH1 0x1 DUP2 DUP2 SHR SWAP1 DUP3 AND DUP1 PUSH2 0x239 JUMPI PUSH1 0x7F DUP3 AND SWAP2 POP JUMPDEST PUSH1 0x20 DUP3 LT DUP2 SUB PUSH2 0x259 JUMPI PUSH4 0x4E487B71 PUSH1 0xE0 SHL PUSH1 0x0 MSTORE PUSH1 0x22 PUSH1 0x4 MSTORE PUSH1 0x24 PUSH1 0x0 REVERT JUMPDEST POP SWAP2 SWAP1 POP JUMP JUMPDEST PUSH1 0x1F DUP3 GT ISZERO PUSH2 0x2A9 JUMPI PUSH1 0x0 DUP2 DUP2 MSTORE PUSH1 0x20 DUP2 KECCAK256 PUSH1 0x1F DUP6 ADD PUSH1 0x5 SHR DUP2 ADD PUSH1 0x20 DUP7 LT ISZERO PUSH2 0x286 JUMPI POP DUP1 JUMPDEST PUSH1 0x1F DUP6 ADD PUSH1 0x5 SHR DUP3 ADD SWAP2 POP JUMPDEST DUP2 DUP2 LT ISZERO PUSH2 0x2A5 JUMPI DUP3 DUP2 SSTORE PUSH1 0x1 ADD PUSH2 0x292 JUMP JUMPDEST POP POP POP JUMPDEST POP POP POP JUMP JUMPDEST DUP2 MLOAD PUSH8 0xFFFFFFFFFFFFFFFF DUP2 GT ISZERO PUSH2 0x2C8 JUMPI PUSH2 0x2C8 PUSH2 0x15E JUMP JUMPDEST PUSH2 0x2DC DUP2 PUSH2 0x2D6 DUP5 SLOAD PUSH2 0x225 JUMP JUMPDEST DUP5 PUSH2 0x25F JUMP JUMPDEST PUSH1 0x20 DUP1 PUSH1 0x1F DUP4 GT PUSH1 0x1 DUP2 EQ PUSH2 0x311 JUMPI PUSH1 0x0 DUP5 ISZERO PUSH2 0x2F9 JUMPI POP DUP6 DUP4 ADD MLOAD JUMPDEST PUSH1 0x0 NOT PUSH1 0x3 DUP7 SWAP1 SHL SHR NOT AND PUSH1 0x1 DUP6 SWAP1 SHL OR DUP6 SSTORE PUSH2 0x2A5 JUMP JUMPDEST PUSH1 0x0 DUP6 DUP2 MSTORE PUSH1 0x20 DUP2 KECCAK256 PUSH1 0x1F NOT DUP7 AND SWAP2 JUMPDEST DUP3 DUP2 LT ISZERO PUSH2 0x340 JUMPI DUP9 DUP7 ADD MLOAD DUP3 SSTORE SWAP5 DUP5 ADD SWAP5 PUSH1 0x1 SWAP1 SWAP2 ADD SWAP1 DUP5 ADD PUSH2 0x321 JUMP JUMPDEST POP DUP6 DUP3 LT ISZERO PUSH2 0x35E JUMPI DUP8 DUP6 ADD MLOAD PUSH1 0x0 NOT PUSH1 0x3 DUP9 SWAP1 SHL PUSH1 0xF8 AND SHR NOT AND DUP2 SSTORE JUMPDEST POP POP POP POP POP PUSH1 0x1 SWAP1 DUP2 SHL ADD SWAP1 SSTORE POP JUMP INVALID LOG2 PUSH5 0x6970667358 0x22 SLT KECCAK256 PUSH15 0x305CE99864413C5DC858B6FF6B607A PC SWAP16 SWAP10 SWAP5 DUP2 PUSH5 0xB0C88A600C 0xB2 LOG1 KECCAK256 0xE7 0x2D PUSH5 0x736F6C6343 STOP ADDMOD SGT STOP CALLER "
				},
				"gasEstimates": {
					"creation": {
						"codeDepositCost": "186400",
						"executionCost": "232",
						"totalCost": "186632"
					},
					"external": {
						"getInfo()": "infinite",
						"setInfo(string)": "infinite"
					}
				},
				"methodIdentifiers": {
					"getInfo()": "5a9b0b89",
					"setInfo(string)": "937f6e77"
				}
			},
			"storageLayout": {
				"storage": [
					{
						"astId": 3,
						"contract": "Register.sol:Register",
						"label": "info",
						"offset": 0,
						"slot": "0",
						"type": "t_string_storage"
					}
				],
				"types": {
					"t_string_storage": {
						"encoding": "bytes",
						"label": "string",
						"numberOfBytes": "32"
					}
				}
			},
			"userdoc": {
				"kind": "user",
				"methods": {},
				"version": 1
			}
		}
	}
}